:100000000C9434000C9451000C9451000C94510049
:100010000C9451000C9451000C9451000C9451001C
:100020000C9451000C9451000C9451000C9451000C
:100030000C9451000C9451000C9451000C945100FC
:100040000C9451000C9451000C9451000C945100EC
:100050000C9451000C9451000C9451000C945100DC
:100060000C9451000C94510011241FBECFEFD8E026
:10007000DEBFCDBF11E0A0E0B1E0E8E0F9E002C0F2
:1000800005900D92AE30B107D9F721E0AEE0B1E0B6
:1000900001C01D92A032B207E1F70E946D010C94DD
:1000A00082040C94000095B19F7140E2849F9001FE
:1000B0001124922B95B985B185B985B185B985B1E2
:1000C00085B98FEA94E00197F1F700C00000089528
:1000D000CF93C82F85B185B985B185B98C2F82950D
:1000E0008F700E9453008C2FCF910C94530060E0CE
:1000F0000C94680061E00C94680084B18C6384B94E
:100100008FE59AEE0197F1F700C0000085B185B93F
:100110008FE090E40197F1F700C0000083E00E94B7
:1001200053008FE090E40197F1F700C0000083E0F6
:100130000E9453008FE090E40197F1F700C00000A7
:1001400083E00E9453008FE090E40197F1F700C034
:10015000000082E00E94530088E20E947700109223
:100160001F0188E00C94770080911F01982F946004
:1001700090931F018C600C94770080911F018B7FFE
:1001800080931F0188600C94770081E00E947700C3
:100190008FE39FE10197F1F700C00000089582E02E
:1001A0000E9477008FE39FE10197F1F700C0000004
:1001B000089580911F01982F916090931F0189608D
:1001C0000C94770080911F018E7F80931F018860BF
:1001D0000C94770080911F01982F926090931F01DB
:1001E0008A600C94770080911F018D7F80931F019E
:1001F00088600C94770088E10C9477008CE10C9473
:10020000770080911F01982F926090931F01866064
:100210000C94770080911F018D7F80931F01846073
:100220000C94770080911F01982F916090931F018B
:1002300085600C94770080911F018E7F80931F0151
:1002400084600C9477000F931F93CF93DF938B01FF
:1002500028E0829FC0011124887380640E94770087
:10026000E801085F1F4F89910E947A00C017D107EB
:10027000D1F780E8DF91CF911F910F910C94770017
:10028000E62FF0E0E050FF4F9081890F80680C94DA
:100290007700CF93DF93EC018991811103C0DF9147
:1002A000CF9108950E947A00F7CFCF93DF93CDB717
:1002B000DEB79E012B5F3F4FF901419151919F01A4
:1002C00061E170E08EE091E00E948C018EE091E0AF
:1002D0000E944901DF91CF9108950E947D000E9404
:1002E000C5000E94CF002FEF83EC99E021508040A1
:1002F0009040E1F700C0000084E091E00E944901D5
:100300000E94D9002FEF83EC99E02150804090406B
:10031000E1F700C00000F6CFAEE0B0E0E2E9F1E0C6
:100320000C9459048C01F62FE72FBA01A90186E03D
:100330008C831A8309838F2F9E2F813020E89207A8
:1003400010F080E090E801979E838D83CE010196A6
:100350000E94BC014D815E8157FD0AC02F81388506
:10036000421753070CF49A01020F131FF801108271
:100370002E96E4E00C947504ABE0B0E0E2ECF1E022
:100380000C944E046C017B018A01FC0117821682D9
:10039000838181FFD9C19AE0592EF6019381F7013B
:1003A00093FD859193FF81917F01882309F475C0A6
:1003B000853239F493FD859193FF81917F018532D8
:1003C00029F4B60190E00E94BD03E7CF912C612C87
:1003D000712CFFE1F71508F449C08B3209F43BC0DA
:1003E00000F5803209F439C0833209F43CC0833609
:1003F00009F488C0833709F48BC0833509F0AEC097
:10040000F801A190B1908F01692D70E076FC02C0D7
:100410006FEF7FEFC5010E94A7034C01689477F846
:100420005DC08D32E9F0803359F020ED280F2A307D
:1004300058F5659C200D1124622E689475F802C051
:10044000689470F8F70193FD859193FF81917F0186
:100450008111BFCF30C0689471F8689472F8F2CF00
:10046000689473F8EFCF689474F8ECCF77FC23C0EE
:1004700030ED380F3A3068F4232F76FEDACF959CB2
:10048000300D1124932EDECF8E3271F4689476F8FD
:10049000D9CF8E3249F476FEF9CFF6018681978165
:1004A0002B96EFE00C946A048C3619F4689477F874
:1004B000C9CF883639F2982F9F7D9554933008F034
:1004C00096CF0C5F1F4F8FE3898388248394912CF0
:1004D000AE014F5F5F4F5A01E89477F873FC05C097
:1004E000862D90E08816990610F18114910431F55B
:1004F000662009F452CFB60180E290E00E94BD036D
:100500006A94F6CFF801808189830E5F1F4FDDCF9B
:10051000F801A190B1908F01692D70E076FC02C0C6
:100520006FEF7FEFC5010E94B2034C01D5CFB6013A
:1005300080E290E00E94BD036A94D2CFF50177FC7F
:10054000859177FE81915F01B60190E00E94BD0325
:1005500061106A94F1E08F1A9108C7CF843619F0C0
:10056000893609F082C0F80177FE78C061917191F7
:10057000819191918F01272D2F76822E97FF09C0AF
:1005800090958095709561957F4F8F4F9F4F6894A0
:1005900087F82AE030E0AE014F5F5F4F5A010E94BA
:1005A000ED038A19A82EBA2C782C86FE0CC0E8948C
:1005B00070F8A91440F484FE05C082FC03C0F82D35
:1005C000FE7E7F2EB92C74FE98C0FE01EA0DF11D4F
:1005D0008081803309F08AC0272D297E722E73FC1A
:1005E0000FC070FE99C09A2CB61420F4962C9B185C
:1005F0009A0CB62C862D8B196B1408F480E0B80E7B
:10060000B61408F08BC06B1874FE8AC0B60180E384
:1006100090E00E94BD0372FE09C088E590E071FC85
:1006200002C088E790E0B6010E94BD03A91408F457
:1006300084C0AA94B12C4FEFA41AB40ACE0101963B
:100640004C01A80EB91EF50182915F01B60190E040
:100650000E94BD038A149B04B1F74ACF6191719146
:10066000072E000C880B990B85CF872CE89484F813
:100670002AE030E0853769F0572D597F852E803785
:1006800029F1D0F4883529F18F3609F006CF28E01A
:1006900030E0F80187FE25C06191719181919191BF
:1006A0008F01FE0131965F01AF010E94ED038A19AF
:1006B000A82EE89487F877CF883709F0EECE84FE2D
:1006C00002C0689482F820E130E0E3CF689484F8B7
:1006D000F6CF74FE03C0852F8660882E20E132E0BD
:1006E000D8CF6191719180E090E0DACF72FC02C0C6
:1006F000B39475CFB394B39472CF872D8678882343
:1007000009F46DCFF5CFB60180E290E00E94BD0301
:1007100083948614C0F36ECF8B2CFBCF612C74CFE7
:10072000872D8678882309F481CF8BE271FE80E2E1
:1007300077FC8DE2B60190E077CFB60180E390E0E0
:100740000E94BD039A9472CF8FEF9FEFA9CEFC0158
:100750000590615070400110D8F7809590958E0FEC
:100760009F1F0895FC016150704001900110D8F75F
:10077000809590958E0F9F1F08950F931F93CF9391
:10078000DF93182F092FEB018B8181FD09C01FEF2B
:100790000FEF812F902FDF91CF911F910F9108952F
:1007A00082FF14C02E813F818C819D8128173907DB
:1007B0003CF4E881F981CF01019699838883108305
:1007C0008E819F8101969F838E83E3CFE885F98593
:1007D000812F0995892BA1F3DACFFA01AA272830B6
:1007E00051F1203181F1E8946F936E7F6E5F7F4FFE
:1007F0008F4F9F4FAF4FB1E03ED0B4E03CD0670F7A
:10080000781F891F9A1FA11D680F791F8A1F911DCC
:10081000A11D6A0F711D811D911DA11D20D009F41C
:1008200068943F912AE0269F11243019305D31935E
:10083000DEF6CF010895462F4770405D4193B3E047
:100840000FD0C9F7F6CF462F4F70405D4A3318F0EE
:10085000495D31FD4052419302D0A9F7EACFB4E09F
:10086000A6959795879577956795BA95C9F7009757
:100870006105710508959B01AC010A2E06945795F8
:10088000479537952795BA95C9F7620F731F841F4F
:10089000951FA01D08952F923F924F925F926F92E5
:1008A0007F928F929F92AF92BF92CF92DF92EF9200
:1008B000FF920F931F93CF93DF93CDB7DEB7CA1B81
:1008C000DB0B0FB6F894DEBF0FBECDBF09942A88AC
:1008D000398848885F846E847D848C849B84AA8454
:1008E000B984C884DF80EE80FD800C811B81AA81E1
:1008F000B981CE0FD11D0FB6F894DEBF0FBECDBFAC
:08090000ED010895F894FFCF0A
:0E09080000401454486920776F726C64000040
:00000001FF
